2018033811675551600631200000005726000026093030000000000000000000000FILIPI RIBEIRO CAVALCANTE  000000000000000000
2018033811675541900631200000005726000267105738500000000000000000000ALAN LUCIO DE ANDRADE      000000000000000000
2018033810976701000631200000005726002653862832000000000000000000000ROBERTO ANTONIO RIBEIRO BAR000000000000000000
2018033810872401600631200000005726003140127936800000000000000000000FRANCISCO PAULO DE ANDRADE 000000000000000000
2018033810050001100631200000005726002104671930000000000000000000000JOSE WILLIAM SOLON DE PAULA000000000000000000
2018033811042851300631200000005726004335525036800000000000000000000JOSE ARNOLDO DE SOUSA RODRI000000000000000000
2018033810367701X00631200000005726002141652430400000000000000000000FRANCISCO RICARDO AGUIAR DA000000000000000000
2018033810979031400631200000005726002850087335300000000000000000000RONALDO BRUNO DE ANDRADE   000000000000000000
2018033813003191100631200000005726000015360024100000000000000000000DIOGENES LUIS BARROS DE FRE000000000000000000
2018033811691391X00631200000005726006731554235300000000000000000000WILSON CORREIA LIMA        000000000000000000
2018033811096931X00631200000005726004298819531500000000000000000000FRANCISCO MAURO DOS SANTOS 000000000000000000
2018033811160931700631200000005726004634550733400000000000000000000EMERSON VASCONCELOS BASTOS 000000000000000000
2018033811337251900631200000005726008567231930000000000000000000000JOSE VIEIRA MENDES JUNIOR  000000000000000000
2018033810367391X00631200000005726002838052535300000000000000000000GERMANO JOSE DA SILVA CARVA000000000000000000
2018033811065281200631200000005726004305750031500000000000000000000MANOEL HELDER DE MIRANDA   000000000000000000
2018033811160901500631200000005726005673266030600000000000000000000FRANCISCO DE SOUSA OLIVEIRA000000000000000000
2018033811266511300631200000005726007402371336800000000000000000000CHRISTIANO DE ALMEIDA SALES000000000000000000
2018033811087821700631200000005726005806750736800000000000000000000ALDER DE OLIVEIRA TEIXEIRA 000000000000000000
2018033811055801800631200000005726005108809638700000000000000000000HOMERO CATUNDA BATISTA     000000000000000000
2018033811105141300631200000005726004795288135300000000000000000000GIRLAN DE HOLANDA GONCALVES000000000000000000
2018033811337201200631200000005726007968814430400000000000000000000ROMULO SILVA DE FREITAS    000000000000000000
2018033811067451400631200000005726001206864788500000000000000000000FRANCISCO RONALD SILVA DE F000000000000000000
2018033810274491000631200000005726001030762139100000000000000000000RAIMUNDO MARCOS DE OLIVEIRA000000000000000000
2018033811028201200631200000005726003914013036300000000000000000000FRANCISCO EDUARDO FIDELES D000000000000000000
2018033811112091100631200000005726005107322638700000000000000000000ANTONIO MOEZIO FERNANDES FI000000000000000000
2018033811160911200631200000005726007271301135300000000000000000000CIRIACO BARBOSA DAMASCENO N000000000000000000
2018033811126411500631200000005726003606116632000000000000000000000NIVAN GIRAO PINTO          000000000000000000
2018033811054911600631200000005726004104177130400000000000000000000VIRGILIO RYOZABURO CLAUDIO 000000000000000000
2018033813003361200631200000005726000230518834000000000000000000000RODRIGO MONTEIRO CARNEIRO  000000000000000000
2018033711518601100631200000005726000107504235600000000000000000000NARA CHAGAS FERNANDES      000000000000000000
2018033711071431100631200000005726000284756377600000000000000000000JOSE CARLOS FERREIRA DE AND000000000000000000
2018033713083911000631200000005726000055844731700000000000000000000LIANA MARIA GONCALVES RODRI000000000000000000
2018033711133361300631200000005726005794932830400000000000000000000CARLOS CESAR MENEZES BARROS000000000000000000
2018033713085191900631200000005726000276129636200000000000000000000MATHEUS ORBANANOS MAIA     000000000000000000
2018033711088061000631200000005726004610145430400000000000000000000ANTONIO HUMBERTO LIMA FERRE000000000000000000
2018033710966471800631200000005726002341109039100000000000000000000ANTONIO RENATO MARQUES DE S000000000000000000
2018033713085311300631200000005726000066956838400000000000000000000JOSE MARIA TAVARES DA SILVA000000000000000000
2018033713085471300631200000005726000020980930200000000000000000000JOSE LEANDRO SALES LASARO  000000000000000000
2018033711133961100631200000005726007033781032000000000000000000000FRANK WENDELL DA SILVA BEZE000000000000000000
2018033711279441X00631200000005726006193109838700000000000000000000ARILSON NOGUEIRA ALCANTARA 000000000000000000
2018033713085551500631200000005726006715725438700000000000000000000BRENO TIMBO MAGALHAES BIZAR000000000000000000
2018033713083881500631200000005726004476109039100000000000000000000GABRIELA VASCONCELOS LUCENA000000000000000000
2018033713047071000631200000005726008077817831500000000000000000000ALZIRENE HOLANDA DE MOURA M000000000000000000
2018033710988331200631200000005726004113073139100000000000000000000JOSE EDBERTO GADELHA MOREIR000000000000000000
2018033711252801900631200000005726007643573336800000000000000000000JOSE MESSIAS MENDES FREITAS000000000000000000
2018033713084621400631200000005726000105184136400000000000000000000HELIO VERAS LESSA MOREIRA  000000000000000000
2018033713084151400631200000005726000272601330900000000000000000000PEDRO LUCAS FAHD DE OLIVEIR000000000000000000
2018033713084351700631200000005726000020940130300000000000000000000THIAGO MARIO VIEIRA SAMPAIO000000000000000000
2018033711012661400631200000005726003795766036300000000000000000000FRANCISCO GILBERTO DE SOUZA000000000000000000
2018033711255051000631200000005726007758901735300000000000000000000CLAUDOMIRO SOUZA DA SILVA  000000000000000000
2018033711056081000631200000005726004435791536800000000000000000000JORGE MACIEL ALECRIM       000000000000000000
2018033711110531900631200000005726007246245030000000000000000000000CARLOS MAGNO DE OLIVEIRA ME000000000000000000
2018033710299401100631200000005726002318893632000000000000000000000JONE DE CASTRO BRASIL      000000000000000000
2018033711091571600631200000005726007247003839100000000000000000000FRANCISCO NILDON MENDES    000000000000000000
2018033711023691600631200000005726004302527730000000000000000000000LUIZ CLAUDIO GUERRA SALDANH000000000000000000
2018033711115581200631200000005726007392069039700000000000000000000ELISANGELA NASCIMENTO FEITO000000000000000000
2018033710368951400631200000005726002208099630400000000000000000000FRANCISCO WELLINGTON ALVES 000000000000000000
2018033713084851900631200000005726000133550931300000000000000000000JOAQUIM TAVARES DE MEDEIROS000000000000000000
2018033713084991400631200000005726006226452439100000000000000000000PEDRO HENRIQUE DE SOUSA MOU000000000000000000
2018033711133321400631200000005726005065380635300000000000000000000DANIEL CESAR FREIRE MONTEIR000000000000000000
